:03000000000000fd
:0300010000000def
:03000200000019e2
:03000300000026d4
:03000400000032c7
:0300050000003fb9
:0300060000004bac
:030007000000589e
:0300080000006590
:0300090000007183
:03000a0000007e75
:03000b0000008a68
:03000c000000975a
:03000d000000a34d
:03000e000000b03f
:03000f000000bc32
:030010000000c924
:030011000000d616
:030012000000e209
:030013000000effb
:030014000000fbee
:03001500000108df
:03001600000114d2
:03001700000121c4
:0300180000012eb6
:0300190000013aa9
:03001a000001479b
:03001b000001538e
:03001c0000016080
:03001d0000016c73
:03001e0000017965
:03001f0000018657
:030020000001924a
:0300210000019f3c
:030022000001ab2f
:030023000001b821
:030024000001c414
:030025000001d106
:030026000001def8
:030027000001eaeb
:030028000001f7dd
:03002900000203cf
:03002a00000210c1
:03002b0000021cb4
:03002c00000229a6
:03002d0000023599
:03002e000002428b
:03002f0000024f7d
:0300300000025b70
:0300310000026862
:0300320000027455
:0300330000028147
:0300340000028d3a
:0300350000029a2c
:030036000002a71e
:030037000002b311
:030038000002c003
:030039000002ccf6
:03003a000002d9e8
:03003b000002e5db
:03003c000002f2cd
:03003d000002ffbf
:03003e0000030bb1
:03003f00000318a3
:0300400000032496
:0300410000033188
:0300420000033d7b
:0300430000034a6d
:030044000003575f
:0300450000036352
:0300460000037044
:0300470000037c37
:0300480000038929
:030049000003951c
:03004a000003a20e
:03004b000003ae01
:03004c000003bbf3
:03004d000003c8e5
:03004e000003d4d8
:03004f000003e1ca
:030050000003edbd
:030051000003faaf
:03005200000406a1
:0300530000041393
:0300540000042085
:0300550000042c78
:030056000004396a
:030057000004455d
:030058000004524f
:0300590000045e42
:03005a0000046b34
:03005b0000047826
:03005c0000048419
:03005d000004910b
:03005e0000049dfe
:03005f000004aaf0
:030060000004b6e3
:030061000004c3d5
:030062000004cfc8
:030063000004dcba
:030064000004e9ac
:030065000004f59f
:0300660000050290
:0300670000050e83
:0300680000051b75
:0300690000052768
:03006a000005345a
:03006b000005414c
:03006c0000054d3f
:03006d0000055a31
:03006e0000056624
:03006f0000057316
:0300700000057f09
:0300710000058cfb
:03007200000599ed
:030073000005a5e0
:030074000005b2d2
:030075000005bec5
:030076000005cbb7
:030077000005d7aa
:030078000005e49c
:030079000005f08f
:03007a000005fd81
:03007b0000060a72
:03007c0000061665
:03007d0000062357
:03007e0000062f4a
:03007f0000063c3c
:030080000006482f
:0300810000065521
:0300820000066213
:0300830000066e06
:0300840000067bf8
:03008500000687eb
:03008600000694dd
:030087000006a0d0
:030088000006adc2
:030089000006bab4
:03008a000006c6a7
:03008b000006d399
:03008c000006df8c
:03008d000006ec7e
:03008e000006f871
:03008f0000070562
:0300900000071155
:0300910000071e47
:0300920000072b39
:030093000007372c
:030094000007441e
:0300950000075011
:0300960000075d03
:03009700000769f6
:03009800000776e8
:03009900000783da
:03009a0000078fcd
:03009b0000079cbf
:03009c000007a8b2
:03009d000007b5a4
:03009e000007c197
:03009f000007ce89
:0300a0000007db7b
:0300a1000007e76e
:0300a2000007f460
:0300a30000080052
:0300a40000080d44
:0300a50000081937
:0300a60000082629
:0300a7000008321c
:0300a80000083f0e
:0300a90000084c00
:0300aa00000858f3
:0300ab00000865e5
:0300ac00000871d8
:0300ad0000087eca
:0300ae0000088abd
:0300af00000897af
:0300b0000008a4a1
:0300b1000008b094
:0300b2000008bd86
:0300b3000008c979
:0300b4000008d66b
:0300b5000008e25e
:0300b6000008ef50
:0300b7000008fc42
:0300b80000090834
:0300b90000091526
:0300ba0000092119
:0300bb0000092e0b
:0300bc0000093afe
:0300bd00000947f0
:0300be00000953e3
:0300bf00000960d5
:0300c00000096dc7
:0300c100000979ba
:0300c200000986ac
:0300c3000009929f
:0300c40000099f91
:0300c5000009ab84
:0300c6000009b876
:0300c7000009c568
:0300c8000009d15b
:0300c9000009de4d
:0300ca000009ea40
:0300cb000009f732
:0300cc00000a0324
:0300cd00000a1016
:0300ce00000a1c09
:0300cf00000a29fb
:0300d000000a36ed
:0300d100000a42e0
:0300d200000a4fd2
:0300d300000a5bc5
:0300d400000a68b7
:0300d500000a74aa
:0300d600000a819c
:0300d700000a8e8e
:0300d800000a9a81
:0300d900000aa773
:0300da00000ab366
:0300db00000ac058
:0300dc00000acc4b
:0300dd00000ad93d
:0300de00000ae62f
:0300df00000af222
:0300e000000aff14
:0300e100000b0b06
:0300e200000b18f8
:0300e300000b24eb
:0300e400000b31dd
:0300e500000b3dd0
:0300e600000b4ac2
:0300e700000b57b4
:0300e800000b63a7
:0300e900000b7099
:0300ea00000b7c8c
:0300eb00000b897e
:0300ec00000b9571
:0300ed00000ba263
:0300ee00000baf55
:0300ef00000bbb48
:0300f000000bc83a
:0300f100000bd42d
:0300f200000be11f
:0300f300000bed12
:0300f400000bfa04
:0300f500000c06f6
:0300f600000c13e8
:0300f700000c20da
:0300f800000c2ccd
:0300f900000c39bf
:0300fa00000c45b2
:0300fb00000c52a4
:0300fc00000c5e97
:0300fd00000c6b89
:0300fe00000c787b
:0300ff00000c846e
:03010000000c915f
:03010100000c9d52
:03010200000caa44
:03010300000cb637
:03010400000cc329
:03010500000ccf1c
:03010600000cdc0e
:03010700000ce900
:03010800000cf5f3
:03010900000d02e4
:03010a00000d0ed7
:03010b00000d1bc9
:03010c00000d27bc
:03010d00000d34ae
:03010e00000d41a0
:03010f00000d4d93
:03011000000d5a85
:03011100000d6678
:03011200000d736a
:03011300000d7f5d
:03011400000d8c4f
:03011500000d9842
:03011600000da534
:03011700000db226
:03011800000dbe19
:03011900000dcb0b
:03011a00000dd7fe
:03011b00000de4f0
:03011c00000df0e3
:03011d00000dfdd5
:03011e00000e0ac6
:03011f00000e16b9
:03012000000e23ab
:03012100000e2f9e
:03012200000e3c90
:03012300000e4883
:03012400000e5575
:03012500000e6168
:03012600000e6e5a
:03012700000e7b4c
:03012800000e873f
:03012900000e9431
:03012a00000ea024
:03012b00000ead16
:03012c00000eb909
:03012d00000ec6fb
:03012e00000ed2ee
:03012f00000edfe0
:03013000000eecd2
:03013100000ef8c5
:03013200000f05b6
:03013300000f11a9
:03013400000f1e9b
:03013500000f2a8e
:03013600000f3780
:03013700000f4472
:03013800000f5065
:03013900000f5d57
:03013a00000f694a
:03013b00000f763c
:03013c00000f822f
:03013d00000f8f21
:03013e00000f9b14
:03013f00000fa806
:03014000000fb5f8
:03014100000fc1eb
:03014200000fcedd
:03014300000fdad0
:03014400000fe7c2
:03014500000ff3b5
:03014600001000a6
:0301470000100c99
:030148000010198b
:030149000010267d
:03014a0000103270
:03014b0000103f62
:03014c0000104b55
:03014d0000105847
:03014e000010643a
:03014f000010712c
:0301500000107e1e
:0301510000108a11
:0301520000109703
:030153000010a3f6
:030154000010b0e8
:030155000010bcdb
:030156000010c9cd
:030157000010d5c0
:030158000010e2b2
:030159000010efa4
:03015a000010fb97
:03015b0000110888
:03015c000011147b
:03015d000011216d
:03015e0000112d60
:03015f0000113a52
:0301600000114645
:0301610000115337
:0301620000116029
:0301630000116c1c
:030164000011790e
:0301650000118501
:03016600001192f3
:0301670000119ee6
:030168000011abd8
:030169000011b8ca
:03016a000011c4bd
:03016b000011d1af
:03016c000011dda2
:03016d000011ea94
:03016e000011f687
:03016f0000120378
:0301700000120f6b
:0301710000121c5d
:030172000012294f
:0301730000123542
:0301740000124234
:0301750000124e27
:0301760000125b19
:030177000012670c
:03017800001274fe
:03017900001280f1
:03017a0000128de3
:03017b0000129ad5
:03017c000012a6c8
:03017d000012b3ba
:03017e000012bfad
:03017f000012cc9f
:030180000012d892
:030181000012e584
:030182000012f177
:030183000012fe69
:0301840000130b5a
:030185000013174d
:030186000013243f
:0301870000133032
:0301880000133d24
:0301890000134917
:03018a0000135609
:03018b00001362fc
:03018c0000136fee
:03018d0000137ce0
:03018e00001388d3
:03018f00001395c5
:030190000013a1b8
:030191000013aeaa
:030192000013ba9d
:030193000013c78f
:030194000013d481
:030195000013e074
:030196000013ed66
:030197000013f959
:030198000014064a
:030199000014123d
:03019a0000141f2f
:03019b0000142b22
:03019c0000143814
:03019d0000144506
:03019e00001451f9
:03019f0000145eeb
:0301a00000146ade
:0301a100001477d0
:0301a200001483c3
:0301a300001490b5
:0301a40000149ca8
:0301a5000014a99a
:0301a6000014b68c
:0301a7000014c27f
:0301a8000014cf71
:0301a9000014db64
:0301aa000014e856
:0301ab000014f449
:0301ac000015013a
:0301ad0000150d2d
:0301ae0000151a1f
:0301af0000152711
:0301b00000153304
:0301b100001540f6
:0301b20000154ce9
:0301b300001559db
:0301b400001565ce
:0301b500001572c0
:0301b60000157eb3
:0301b70000158ba5
:0301b80000159897
:0301b9000015a48a
:0301ba000015b17c
:0301bb000015bd6f
:0301bc000015ca61
:0301bd000015d654
:0301be000015e346
:0301bf000015ef39
:0301c0000015fc2b
:0301c1000016091c
:0301c2000016150f
:0301c30000162201
:0301c40000162ef4
:0301c50000163be6
:0301c600001647d9
:0301c700001654cb
:0301c800001660be
:0301c90000166db0
:0301ca0000167aa2
:0301cb0000168695
:0301cc0000169387
:0301cd0000169f7a
:0301ce000016ac6c
:0301cf000016b85f
:0301d0000016c551
:0301d1000016d144
:0301d2000016de36
:0301d3000016ea29
:0301d4000016f71b
:0301d5000017040c
:0301d600001710ff
:0301d70000171df1
:0301d800001729e4
:0301d900001736d6
:0301da00001742c9
:0301db0000174fbb
:0301dc0000175bae
:0301dd00001768a0
:0301de0000177592
:0301df0000178185
:0301e00000178e77
:0301e10000179a6a
:0301e2000017a75c
:0301e3000017b34f
:0301e4000017c041
:0301e5000017cc34
:0301e6000017d926
:0301e7000017e618
:0301e8000017f20b
:0301e9000017fffd
:0301ea0000180bef
:0301eb00001818e1
:0301ec00001824d4
:0301ed00001831c6
:0301ee0000183db9
:0301ef0000184aab
:0301f0000018579d
:0301f10000186390
:0301f20000187082
:0301f30000187c75
:0301f40000188967
:0301f5000018955a
:0301f6000018a24c
:0301f7000018ae3f
:0301f8000018bb31
:0301f9000018c724
:0301fa000018d416
:0301fb000018e108
:0301fc000018edfb
:0301fd000018faed
:0301fe00001906df
:0301ff00001913d1
:0302000000191fc3
:0302010000192cb5
:03020200001938a8
:030203000019459a
:030204000019528c
:0302050000195e7f
:0302060000196b71
:0302070000197764
:0302080000198456
:0302090000199049
:03020a0000199d3b
:03020b000019a92e
:03020c000019b620
:03020d000019c312
:03020e000019cf05
:03020f000019dcf7
:030210000019e8ea
:030211000019f5dc
:03021200001a01ce
:03021300001a0ec0
:03021400001a1ab3
:03021500001a27a5
:03021600001a3398
:03021700001a408a
:03021800001a4d7c
:03021900001a596f
:03021a00001a6661
:03021b00001a7254
:03021c00001a7f46
:03021d00001a8b39
:03021e00001a982b
:03021f00001aa41e
:03022000001ab110
:03022100001abe02
:03022200001acaf5
:03022300001ad7e7
:03022400001ae3da
:03022500001af0cc
:03022600001afcbf
:03022700001b09b0
:03022800001b15a3
:03022900001b2295
:03022a00001b2e88
:03022b00001b3b7a
:03022c00001b486c
:03022d00001b545f
:03022e00001b6151
:03022f00001b6d44
:03023000001b7a36
:03023100001b8629
:03023200001b931b
:03023300001b9f0e
:03023400001bac00
:03023500001bb8f3
:03023600001bc5e5
:03023700001bd2d7
:03023800001bdeca
:03023900001bebbc
:03023a00001bf7af
:03023b00001c04a0
:03023c00001c1093
:03023d00001c1d85
:03023e00001c2978
:03023f00001c366a
:03024000001c425d
:03024100001c4f4f
:03024200001c5c41
:03024300001c6834
:03024400001c7526
:03024500001c8119
:03024600001c8e0b
:03024700001c9afe
:03024800001ca7f0
:03024900001cb3e3
:03024a00001cc0d5
:03024b00001ccdc7
:03024c00001cd9ba
:03024d00001ce6ac
:03024e00001cf29f
:03024f00001cff91
:03025000001d0b83
:03025100001d1875
:03025200001d2468
:03025300001d315a
:03025400001d3d4d
:03025500001d4a3f
:03025600001d5731
:03025700001d6324
:03025800001d7016
:03025900001d7c09
:03025a00001d89fb
:03025b00001d95ee
:03025c00001da2e0
:03025d00001daed3
:03025e00001dbbc5
:03025f00001dc7b8
:03026000001dd4aa
:03026100001de19c
:03026200001ded8f
:03026300001dfa81
:03026400001e0673
:03026500001e1365
:03026600001e1f58
:03026700001e2c4a
:03026800001e383d
:03026900001e452f
:03026a00001e5122
:03026b00001e5e14
:03026c00001e6b06
:03026d00001e77f9
:03026e00001e84eb
:03026f00001e90de
:03027000001e9dd0
:03027100001ea9c3
:03027200001eb6b5
:03027300001ec2a8
:03027400001ecf9a
:03027500001edb8d
:03027600001ee87f
:03027700001ef472
:03027800001f0163
:03027900001f0e55
:03027a00001f1a48
:03027b00001f273a
:03027c00001f332d
:03027d00001f401f
:03027e00001f4c12
:03027f00001f5904
:03028000001f65f7
:03028100001f72e9
:03028200001f7edc
:03028300001f8bce
:03028400001f98c0
:03028500001fa4b3
:03028600001fb1a5
:03028700001fbd98
:03028800001fca8a
:03028900001fd67d
:03028a00001fe36f
:03028b00001fef62
:03028c00001ffc54
:03028d0000200846
:03028e0000201538
:03028f000020222a
:0302900000202e1d
:0302910000203b0f
:0302920000204702
:03029300002054f4
:03029400002060e7
:0302950000206dd9
:03029600002079cc
:03029700002086be
:03029800002092b1
:0302990000209fa3
:03029a000020ab96
:03029b000020b888
:03029c000020c57a
:03029d000020d16d
:03029e000020de5f
:03029f000020ea52
:0302a0000020f744
:0302a10000210336
:0302a20000211028
:0302a30000211c1b
:0302a4000021290d
:0302a50000213500
:0302a600002142f2
:0302a70000214ee5
:0302a80000215bd7
:0302a900002168c9
:0302aa00002174bc
:0302ab00002181ae
:0302ac0000218da1
:0302ad0000219a93
:0302ae000021a686
:0302af000021b378
:0302b0000021bf6b
:0302b1000021cc5d
:0302b2000021d850
:0302b3000021e542
:0302b4000021f135
:0302b5000021fe27
:0302b60000220b18
:0302b7000022170b
:0302b800002224fd
:0302b900002230f0
:0302ba0000223de2
:0302bb00002249d5
:0302bc00002256c7
:0302bd00002262ba
:0302be0000226fac
:0302bf0000227b9f
:0302c00000228891
:0302c10000229484
:0302c2000022a176
:0302c3000022ae68
:0302c4000022ba5b
:0302c5000022c74d
:0302c6000022d340
:0302c7000022e032
:0302c8000022ec25
:0302c9000022f917
:0302ca0000230509
:0302cb00002312fb
:0302cc0000231eee
:0302cd0000232be0
:0302ce00002337d3
:0302cf00002344c5
:0302d000002351b7
:0302d10000235daa
:0302d20000236a9c
:0302d3000023768f
:0302d40000238381
:0302d50000238f74
:0302d60000239c66
:0302d7000023a859
:0302d8000023b54b
:0302d9000023c13e
:0302da000023ce30
:0302db000023da23
:0302dc000023e715
:0302dd000023f308
:0302de00002400f9
:0302df0000240deb
:0302e000002419de
:0302e100002426d0
:0302e200002432c3
:0302e30000243fb5
:0302e40000244ba8
:0302e5000024589a
:0302e6000024648d
:0302e7000024717f
:0302e80000247d72
:0302e90000248a64
:0302ea0000249657
:0302eb000024a349
:0302ec000024b03b
:0302ed000024bc2e
:0302ee000024c920
:0302ef000024d513
:0302f0000024e205
:0302f1000024eef8
:0302f2000024fbea
:0302f300002507dc
:0302f400002514ce
:0302f500002520c1
:0302f60000252db3
:0302f700002539a6
:0302f80000254698
:0302f9000025528b
:0302fa0000255f7d
:0302fb0000256c6f
:0302fc0000257862
:0302fd0000258554
:0302fe0000259147
:0302ff0000259e39
:030300000025aa2b
:030301000025b71d
:030302000025c310
:030303000025d002
:030304000025dcf5
:030305000025e9e7
:030306000025f5da
:03030700002602cb
:0303080000260ebe
:0303090000261bb0
:03030a00002627a3
:03030b0000263495
:03030c0000264187
:03030d0000264d7a
:03030e0000265a6c
:03030f000026665f
:0303100000267351
:0303110000267f44
:0303120000268c36
:0303130000269829
:030314000026a51b
:030315000026b10e
:030316000026be00
:030317000026caf3
:030318000026d7e5
:030319000026e3d8
:03031a000026f0ca
:03031b000026fdbc
:03031c00002709ae
:03031d00002716a0
:03031e0000272293
:03031f0000272f85
:0303200000273b78
:030321000027486a
:030322000027545d
:030323000027614f
:0303240000276d42
:0303250000277a34
:0303260000278627
:0303270000279319
:0303280000279f0c
:030329000027acfe
:03032a000027b8f1
:03032b000027c5e3
:03032c000027d2d5
:03032d000027dec8
:03032e000027ebba
:03032f000027f7ad
:030330000028049e
:0303310000281091
:0303320000281d83
:0303330000282976
:0303340000283668
:030335000028425b
:0303360000284f4d
:0303370000285b40
:0303380000286832
:0303390000287425
:03033a0000288117
:03033b0000288d0a
:03033c0000289afc
:03033d000028a6ef
:03033e000028b3e1
:03033f000028c0d3
:030340000028ccc6
:030341000028d9b8
:030342000028e5ab
:030343000028f29d
:030344000028fe90
:0303450000290b81
:0303460000291774
:0303470000292466
:0303480000293059
:0303490000293d4b
:03034a000029493e
:03034b0000295630
:03034c0000296223
:03034d0000296f15
:03034e0000297b08
:03034f00002988fa
:03035000002994ed
:030351000029a1df
:030352000029aed1
:030353000029bac4
:030354000029c7b6
:030355000029d3a9
:030356000029e09b
:030357000029ec8e
:030358000029f980
:03035900002a0572
:03035a00002a1264
:03035b00002a1e57
:03035c00002a2b49
:03035d00002a373c
:03035e00002a442e
:03035f00002a5021
:03036000002a5d13
:03036100002a6906
:03036200002a76f8
:03036300002a82eb
:03036400002a8fdd
:03036500002a9bd0
:03036600002aa8c2
:03036700002ab5b4
:03036800002ac1a7
:03036900002ace99
:03036a00002ada8c
:03036b00002ae77e
:03036c00002af371
:03036d00002b0062
:03036e00002b0c55
:03036f00002b1947
:03037000002b253a
:03037100002b322c
:03037200002b3e1f
:03037300002b4b11
:03037400002b5704
:03037500002b64f6
:03037600002b70e9
:03037700002b7ddb
:03037800002b89ce
:03037900002b96c0
:03037a00002ba2b3
:03037b00002bafa5
:03037c00002bbb98
:03037d00002bc88a
:03037e00002bd47d
:03037f00002be16f
:03038000002bee61
:03038100002bfa54
:03038200002c0745
:03038300002c1338
:03038400002c202a
:03038500002c2c1d
:03038600002c390f
:03038700002c4502
:03038800002c52f4
:03038900002c5ee7
:03038a00002c6bd9
:03038b00002c77cc
:03038c00002c84be
:03038d00002c90b1
:03038e00002c9da3
:03038f00002ca996
:03039000002cb688
:03039100002cc27b
:03039200002ccf6d
:03039300002cdb60
:03039400002ce852
:03039500002cf445
:03039600002d0136
:03039700002d0d29
:03039800002d1a1b
:03039900002d270d
:03039a00002d3300
:03039b00002d40f2
:03039c00002d4ce5
:03039d00002d59d7
:03039e00002d65ca
:03039f00002d72bc
:0303a000002d7eaf
:0303a100002d8ba1
:0303a200002d9794
:0303a300002da486
:0303a400002db079
:0303a500002dbd6b
:0303a600002dc95e
:0303a700002dd650
:0303a800002de243
:0303a900002def35
:0303aa00002dfb28
:0303ab00002e0819
:0303ac00002e140c
:0303ad00002e21fe
:0303ae00002e2df1
:0303af00002e3ae3
:0303b000002e46d6
:0303b100002e53c8
:0303b200002e5fbb
:0303b300002e6cad
:0303b400002e78a0
:0303b500002e8592
:0303b600002e9185
:0303b700002e9e77
:0303b800002eaa6a
:0303b900002eb75c
:0303ba00002ec44e
:0303bb00002ed041
:0303bc00002edd33
:0303bd00002ee926
:0303be00002ef618
:0303bf00002f020a
:0303c000002f0ffc
:0303c100002f1bef
:0303c200002f28e1
:0303c300002f34d4
:0303c400002f41c6
:0303c500002f4db9
:0303c600002f5aab
:0303c700002f669e
:0303c800002f7390
:0303c900002f7f83
:0303ca00002f8c75
:0303cb00002f9868
:0303cc00002fa55a
:0303cd00002fb14d
:0303ce00002fbe3f
:0303cf00002fca32
:0303d000002fd724
:0303d100002fe317
:0303d200002ff009
:0303d300002ffcfc
:0303d400003009ed
:0303d500003015e0
:0303d600003022d2
:0303d70000302ec5
:0303d80000303bb7
:0303d900003047aa
:0303da000030549c
:0303db000030608f
:0303dc0000306d81
:0303dd0000307974
:0303de0000308666
:0303df0000309259
:0303e00000309f4b
:0303e1000030ab3e
:0303e2000030b830
:0303e3000030c423
:0303e4000030d115
:0303e5000030de07
:0303e6000030eafa
:0303e7000030f7ec
:0303e800003103de
:0303e900003110d0
:0303ea0000311cc3
:0303eb00003129b5
:0303ec00003135a8
:0303ed000031429a
:0303ee0000314e8d
:0303ef0000315b7f
:0303f00000316772
:0303f10000317464
:0303f20000318057
:0303f30000318d49
:0303f4000031993c
:0303f5000031a62e
:0303f6000031b221
:0303f7000031bf13
:0303f8000031cb06
:0303f9000031d8f8
:0303fa000031e4eb
:0303fb000031f1dd
:0303fc000031fdd0
:0303fd0000320ac1
:0303fe00003216b4
:0303ff00003223a6
:0304000000322f98
:0304010000323c8a
:030402000032487d
:030403000032556f
:0304040000326162
:0304050000326e54
:0304060000327a47
:0304070000328739
:030408000032932c
:030409000032a01e
:03040a000032ac11
:03040b000032b903
:03040c000032c5f6
:03040d000032d2e8
:03040e000032dedb
:03040f000032ebcd
:030410000032f7c0
:03041100003304b1
:03041200003310a4
:0304130000331d96
:0304140000332989
:030415000033367b
:030416000033426e
:0304170000334f60
:0304180000335b53
:0304190000336845
:03041a0000337438
:03041b000033812a
:03041c0000338d1d
:03041d0000339a0f
:03041e000033a602
:03041f000033b3f4
:030420000033bfe7
:030421000033ccd9
:030422000033d8cc
:030423000033e5be
:030424000033f1b1
:030425000033fea3
:0304260000340a95
:0304270000341787
:030428000034237a
:030429000034306c
:03042a0000343c5f
:03042b0000344951
:03042c0000345544
:03042d0000346236
:03042e0000346e29
:03042f0000347b1b
:030430000034870e
:0304310000349400
:030432000034a0f3
:030433000034ade5
:030434000034b9d8
:030435000034c6ca
:030436000034d2bd
:030437000034dfaf
:030438000034eba2
:030439000034f894
:03043a0000350486
:03043b0000351178
:03043c0000351d6b
:03043d0000352a5d
:03043e0000353650
:03043f0000354342
:0304400000354f35
:0304410000355c27
:030442000035681a
:030443000035750c
:03044400003581ff
:0304450000358ef1
:0304460000359ae4
:030447000035a7d6
:030448000035b3c9
:030449000035c0bb
:03044a000035ccae
:03044b000035d9a0
:03044c000035e593
:03044d000035f285
:03044e000035fe78
:03044f0000360b69
:030450000036175c
:030451000036244e
:0304520000363041
:0304530000363d33
:0304540000364926
:0304550000365618
:030456000036620b
:0304570000366ffd
:0304580000367bf0
:03045900003688e2
:03045a00003694d5
:03045b000036a1c7
:03045c000036adba
:03045d000036baac
:03045e000036c69f
:03045f000036d391
:030460000036df84
:030461000036ec76
:030462000036f869
:030463000037055a
:030464000037114d
:0304650000371e3f
:0304660000372a32
:0304670000373724
:0304680000374317
:0304690000375009
:03046a0000375cfc
:03046b00003769ee
:03046c00003775e1
:03046d00003782d3
:03046e0000378ec6
:03046f0000379bb8
:030470000037a7ab
:030471000037b49d
:030472000037c090
:030473000037cd82
:030474000037d975
:030475000037e667
:030476000037f25a
:030477000037ff4c
:0304780000380b3e
:0304790000381830
:03047a0000382423
:03047b0000383016
:03047c0000383d08
:03047d00003849fb
:03047e00003856ed
:03047f00003862e0
:0304800000386fd2
:0304810000387bc5
:03048200003888b7
:03048300003894aa
:030484000038a19c
:030485000038ad8f
:030486000038ba81
:030487000038c674
:030488000038d366
:030489000038df59
:03048a000038ec4b
:03048b000038f83e
:03048c000039052f
:03048d0000391122
:03048e0000391e14
:03048f0000392a07
:03049000003937f9
:03049100003943ec
:03049200003950de
:0304930000395cd1
:03049400003969c3
:03049500003975b6
:03049600003982a8
:0304970000398e9b
:0304980000399b8d
:030499000039a780
:03049a000039b472
:03049b000039c065
:03049c000039cd57
:03049d000039d94a
:03049e000039e63c
:03049f000039f22f
:0304a0000039ff21
:0304a100003a0b13
:0304a200003a1805
:0304a300003a24f8
:0304a400003a30eb
:0304a500003a3ddd
:0304a600003a49d0
:0304a700003a56c2
:0304a800003a62b5
:0304a900003a6fa7
:0304aa00003a7b9a
:0304ab00003a888c
:0304ac00003a947f
:0304ad00003aa171
:0304ae00003aad64
:0304af00003aba56
:0304b000003ac649
:0304b100003ad33b
:0304b200003adf2e
:0304b300003aec20
:0304b400003af813
:0304b500003b0504
:0304b600003b11f7
:0304b700003b1ee9
:0304b800003b2adc
:0304b900003b37ce
:0304ba00003b43c1
:0304bb00003b50b3
:0304bc00003b5ca6
:0304bd00003b6998
:0304be00003b758b
:0304bf00003b827d
:0304c000003b8e70
:0304c100003b9a63
:0304c200003ba755
:0304c300003bb348
:0304c400003bc03a
:0304c500003bcc2d
:0304c600003bd91f
:0304c700003be512
:0304c800003bf204
:0304c900003bfef7
:0304ca00003c0be8
:0304cb00003c17db
:0304cc00003c24cd
:0304cd00003c30c0
:0304ce00003c3db2
:0304cf00003c49a5
:0304d000003c5697
:0304d100003c628a
:0304d200003c6f7c
:0304d300003c7b6f
:0304d400003c8861
:0304d500003c9454
:0304d600003ca146
:0304d700003cad39
:0304d800003cba2b
:0304d900003cc61e
:0304da00003cd211
:0304db00003cdf03
:0304dc00003cebf6
:0304dd00003cf8e8
:0304de00003d04da
:0304df00003d11cc
:0304e000003d1dbf
:0304e100003d2ab1
:0304e200003d36a4
:0304e300003d4396
:0304e400003d4f89
:0304e500003d5c7b
:0304e600003d686e
:0304e700003d7560
:0304e800003d8153
:0304e900003d8e45
:0304ea00003d9a38
:0304eb00003da72a
:0304ec00003db31d
:0304ed00003dbf10
:0304ee00003dcc02
:0304ef00003dd8f5
:0304f000003de5e7
:0304f100003df1da
:0304f200003dfecc
:0304f300003e0abe
:0304f400003e17b0
:0304f500003e23a3
:0304f600003e3095
:0304f700003e3c88
:0304f800003e497a
:0304f900003e556d
:0304fa00003e625f
:0304fb00003e6e52
:0304fc00003e7b44
:0304fd00003e8737
:0304fe00003e9429
:0304ff00003ea01c
:03050000003eac0e
:03050100003eb900
:03050200003ec5f3
:03050300003ed2e5
:03050400003eded8
:03050500003eebca
:03050600003ef7bd
:03050700003f04ae
:03050800003f10a1
:03050900003f1d93
:03050a00003f2986
:03050b00003f3678
:03050c00003f426b
:03050d00003f4f5d
:03050e00003f5b50
:03050f00003f6842
:03051000003f7435
:03051100003f8028
:03051200003f8d1a
:03051300003f990d
:03051400003fa6ff
:03051500003fb2f2
:03051600003fbfe4
:03051700003fcbd7
:03051800003fd8c9
:03051900003fe4bc
:03051a00003ff1ae
:03051b00003ffda1
:03051c0000400a92
:03051d0000401685
:03051e0000402377
:03051f0000402f6a
:0305200000403c5c
:030521000040484f
:0305220000405442
:0305230000406134
:0305240000406d27
:0305250000407a19
:030526000040860c
:03052700004093fe
:0305280000409ff1
:030529000040ace3
:03052a000040b8d6
:03052b000040c5c8
:03052c000040d1bb
:03052d000040dead
:03052e000040eaa0
:03052f000040f693
:0305300000410384
:0305310000410f77
:0305320000411c69
:030533000041285c
:030534000041354e
:0305350000414141
:0305360000414e33
:0305370000415a26
:0305380000416718
:030539000041730b
:03053a00004180fd
:03053b0000418cf0
:03053c00004199e2
:03053d000041a5d5
:03053e000041b1c8
:03053f000041beba
:030540000041caad
:030541000041d79f
:030542000041e392
:030543000041f084
:030544000041fc77
:0305450000420968
:030546000042155b
:030547000042224d
:0305480000422e40
:0305490000423b32
:03054a0000424725
:03054b0000425318
:03054c000042600a
:03054d0000426cfd
:03054e00004279ef
:03054f00004285e2
:03055000004292d4
:0305510000429ec7
:030552000042abb9
:030553000042b7ac
:030554000042c49e
:030555000042d091
:030556000042dd83
:030557000042e976
:030558000042f569
:030559000043025a
:03055a0000430e4d
:03055b0000431b3f
:03055c0000432732
:03055d0000433424
:03055e0000434017
:03055f0000434d09
:03056000004359fc
:03056100004366ee
:03056200004372e1
:0305630000437ed4
:0305640000438bc6
:03056500004397b9
:030566000043a4ab
:030567000043b09e
:030568000043bd90
:030569000043c983
:03056a000043d675
:03056b000043e268
:03056c000043ef5a
:03056d000043fb4d
:03056e000044073f
:03056f0000441431
:0305700000442024
:0305710000442d16
:0305720000443909
:03057300004446fb
:03057400004452ee
:0305750000445fe0
:0305760000446bd3
:03057700004478c5
:03057800004484b8
:03057900004490ab
:03057a0000449d9d
:03057b000044a990
:03057c000044b682
:03057d000044c275
:03057e000044cf67
:03057f000044db5a
:030580000044e84c
:030581000044f43f
:0305820000450130
:0305830000450d23
:0305840000451916
:0305850000452608
:03058600004532fb
:0305870000453fed
:0305880000454be0
:03058900004558d2
:03058a00004564c5
:03058b00004571b7
:03058c0000457daa
:03058d000045899d
:03058e000045968f
:03058f000045a282
:030590000045af74
:030591000045bb67
:030592000045c859
:030593000045d44c
:030594000045e13e
:030595000045ed31
:030596000045fa23
:0305970000460615
:0305980000461208
:0305990000461ffa
:03059a0000462bed
:03059b00004638df
:03059c00004644d2
:03059d00004651c4
:03059e0000465db7
:03059f0000466aa9
:0305a0000046769c
:0305a1000046828f
:0305a20000468f81
:0305a30000469b74
:0305a4000046a866
:0305a5000046b459
:0305a6000046c14b
:0305a7000046cd3e
:0305a8000046da30
:0305a9000046e623
:0305aa000046f216
:0305ab000046ff08
:0305ac0000470bfa
:0305ad00004718ec
:0305ae00004724df
:0305af00004731d1
:0305b00000473dc4
:0305b10000474ab6
:0305b200004756a9
:0305b3000047629c
:0305b40000476f8e
:0305b50000477b81
:0305b60000478873
:0305b70000479466
:0305b8000047a158
:0305b9000047ad4b
:0305ba000047ba3d
:0305bb000047c630
:0305bc000047d223
:0305bd000047df15
:0305be000047eb08
:0305bf000047f8fa
:0305c000004804ec
:0305c100004811de
:0305c20000481dd1
:0305c30000482ac3
:0305c400004836b6
:0305c500004842a9
:0305c60000484f9b
:0305c70000485b8e
:0305c80000486880
:0305c90000487473
:0305ca0000488165
:0305cb0000488d58
:0305cc000048994b
:0305cd000048a63d
:0305ce000048b230
:0305cf000048bf22
:0305d0000048cb15
:0305d1000048d807
:0305d2000048e4fa
:0305d3000048f1ec
:0305d4000048fddf
:0305d500004909d1
:0305d600004916c3
:0305d700004922b6
:0305d80000492fa8
:0305d90000493b9b
:0305da000049488d
:0305db0000495480
:0305dc0000496172
:0305dd0000496d65
:0305de0000497958
:0305df000049864a
:0305e0000049923d
:0305e10000499f2f
:0305e2000049ab22
:0305e3000049b814
:0305e4000049c407
:0305e5000049d0fa
:0305e6000049ddec
:0305e7000049e9df
:0305e8000049f6d1
:0305e900004a02c3
:0305ea00004a0fb5
:0305eb00004a1ba8
:0305ec00004a279b
:0305ed00004a348d
:0305ee00004a4080
:0305ef00004a4d72
:0305f000004a5965
:0305f100004a6657
:0305f200004a724a
:0305f300004a7f3c
:0305f400004a8b2f
:0305f500004a9722
:0305f600004aa414
:0305f700004ab007
:0305f800004abdf9
:0305f900004ac9ec
:0305fa00004ad6de
:0305fb00004ae2d1
:0305fc00004aeec4
:0305fd00004afbb6
:0305fe00004b07a8
:0305ff00004b149a
:03060000004b208c
:03060100004b2d7e
:03060200004b3971
:03060300004b4564
:03060400004b5256
:03060500004b5e49
:03060600004b6b3b
:03060700004b772e
:03060800004b8420
:03060900004b9013
:03060a00004b9c06
:03060b00004ba9f8
:03060c00004bb5eb
:03060d00004bc2dd
:03060e00004bced0
:03060f00004bdbc2
:03061000004be7b5
:03061100004bf3a8
:03061200004c0099
:03061300004c0c8c
:03061400004c197e
:03061500004c2571
:03061600004c3263
:03061700004c3e56
:03061800004c4a49
:03061900004c573b
:03061a00004c632e
:03061b00004c7020
:03061c00004c7c13
:03061d00004c8905
:03061e00004c95f8
:03061f00004ca1eb
:03062000004caedd
:03062100004cbad0
:03062200004cc7c2
:03062300004cd3b5
:03062400004cdfa8
:03062500004cec9a
:03062600004cf88d
:03062700004d057e
:03062800004d1171
:03062900004d1e63
:03062a00004d2a56
:03062b00004d3649
:03062c00004d433b
:03062d00004d4f2e
:03062e00004d5c20
:03062f00004d6813
:03063000004d7505
:03063100004d81f8
:03063200004d8deb
:03063300004d9add
:03063400004da6d0
:03063500004db3c2
:03063600004dbfb5
:03063700004dcca7
:03063800004dd89a
:03063900004de48d
:03063a00004df17f
:03063b00004dfd72
:03063c00004e0a63
:03063d00004e1656
:03063e00004e2249
:03063f00004e2f3b
:03064000004e3b2e
:03064100004e4820
:03064200004e5413
:03064300004e6105
:03064400004e6df8
:03064500004e79eb
:03064600004e86dd
:03064700004e92d0
:03064800004e9fc2
:03064900004eabb5
:03064a00004eb7a8
:03064b00004ec49a
:03064c00004ed08d
:03064d00004edd7f
:03064e00004ee972
:03064f00004ef664
:03065000004f0256
:03065100004f0e49
:03065200004f1b3b
:03065300004f272e
:03065400004f3420
:03065500004f4013
:03065600004f4c06
:03065700004f59f8
:03065800004f65eb
:03065900004f72dd
:03065a00004f7ed0
:03065b00004f8bc2
:03065c00004f97b5
:03065d00004fa3a8
:03065e00004fb09a
:03065f00004fbc8d
:03066000004fc97f
:03066100004fd572
:03066200004fe165
:03066300004fee57
:03066400004ffa4a
:030665000050073b
:030666000050132e
:0306670000501f21
:0306680000502c13
:0306690000503806
:03066a00005045f8
:03066b00005051eb
:03066c0000505edd
:03066d0000506ad0
:03066e00005076c3
:03066f00005083b5
:0306700000508fa8
:0306710000509c9a
:030672000050a88d
:030673000050b480
:030674000050c172
:030675000050cd65
:030676000050da57
:030677000050e64a
:030678000050f23d
:030679000050ff2f
:03067a0000510b21
:03067b0000511813
:03067c0000512406
:03067d00005130f9
:03067e0000513deb
:03067f00005149de
:03068000005156d0
:03068100005162c3
:0306820000516fb5
:0306830000517ba8
:030684000051879b
:030685000051948d
:030686000051a080
:030687000051ad72
:030688000051b965
:030689000051c558
:03068a000051d24a
:03068b000051de3d
:03068c000051eb2f
:03068d000051f722
:03068e0000520314
:03068f0000521006
:0306900000521cf9
:03069100005229eb
:03069200005235de
:03069300005241d1
:0306940000524ec3
:0306950000525ab6
:03069600005267a8
:030697000052739b
:0306980000527f8e
:0306990000528c80
:03069a0000529873
:03069b000052a565
:03069c000052b158
:03069d000052bd4b
:03069e000052ca3d
:03069f000052d630
:0306a0000052e322
:0306a1000052ef15
:0306a2000052fb08
:0306a300005308f9
:0306a400005314ec
:0306a500005321de
:0306a60000532dd1
:0306a700005339c4
:0306a800005346b6
:0306a900005352a9
:0306aa0000535f9b
:0306ab0000536b8e
:0306ac0000537781
:0306ad0000538473
:0306ae0000539066
:0306af0000539d58
:0306b0000053a94b
:0306b1000053b53e
:0306b2000053c230
:0306b3000053ce23
:0306b4000053db15
:0306b5000053e708
:0306b6000053f3fb
:0306b700005400ec
:0306b80000540cdf
:0306b900005419d1
:0306ba00005425c4
:0306bb00005431b7
:0306bc0000543ea9
:0306bd0000544a9c
:0306be000054578e
:0306bf0000546381
:0306c00000546f74
:0306c10000547c66
:0306c20000548859
:0306c3000054954b
:0306c4000054a13e
:0306c5000054ad31
:0306c6000054ba23
:0306c7000054c616
:0306c8000054d209
:0306c9000054dffb
:0306ca000054ebee
:0306cb000054f8e0
:0306cc00005504d2
:0306cd00005510c5
:0306ce0000551db7
:0306cf00005529aa
:0306d0000055369c
:0306d1000055428f
:0306d20000554e82
:0306d30000555b74
:0306d40000556767
:0306d50000557459
:0306d6000055804c
:0306d70000558c3f
:0306d80000559931
:0306d9000055a524
:0306da000055b216
:0306db000055be09
:0306dc000055cafc
:0306dd000055d7ee
:0306de000055e3e1
:0306df000055efd4
:0306e0000055fcc6
:0306e100005608b8
:0306e200005615aa
:0306e3000056219d
:0306e40000562d90
:0306e50000563a82
:0306e60000564675
:0306e70000565367
:0306e80000565f5a
:0306e90000566b4d
:0306ea000056783f
:0306eb0000568432
:0306ec0000569025
:0306ed0000569d17
:0306ee000056a90a
:0306ef000056b6fc
:0306f0000056c2ef
:0306f1000056cee2
:0306f2000056dbd4
:0306f3000056e7c7
:0306f4000056f4b9
:0306f500005700ab
:0306f60000570c9e
:0306f70000571990
:0306f80000572583
:0306f90000573176
:0306fa0000573e68
:0306fb0000574a5b
:0306fc000057574d
:0306fd0000576340
:0306fe0000576f33
:0306ff0000577c25
:0307000000578817
:0307010000579509
:030702000057a1fc
:030703000057adef
:030704000057bae1
:030705000057c6d4
:030706000057d2c7
:030707000057dfb9
:030708000057ebac
:030709000057f89e
:03070a0000580490
:03070b0000581083
:03070c0000581d75
:03070d0000582968
:03070e000058355b
:03070f000058424d
:0307100000584e40
:0307110000585b32
:0307120000586725
:0307130000587318
:030714000058800a
:0307150000588cfd
:03071600005898f0
:030717000058a5e2
:030718000058b1d5
:030719000058bec7
:03071a000058caba
:03071b000058d6ad
:03071c000058e39f
:03071d000058ef92
:03071e000058fb85
:03071f0000590876
:0307200000591469
:030721000059215b
:0307220000592d4e
:0307230000593941
:0307240000594633
:0307250000595226
:0307260000595e19
:0307270000596b0b
:03072800005977fe
:03072900005984f0
:03072a00005990e3
:03072b0000599cd6
:03072c000059a9c8
:03072d000059b5bb
:03072e000059c1ae
:03072f000059cea0
:030730000059da93
:030731000059e785
:030732000059f378
:030733000059ff6b
:03073400005a0c5c
:03073500005a184f
:03073600005a2442
:03073700005a3134
:03073800005a3d27
:03073900005a4a19
:03073a00005a560c
:03073b00005a62ff
:03073c00005a6ff1
:03073d00005a7be4
:03073e00005a87d7
:03073f00005a94c9
:03074000005aa0bc
:03074100005aacaf
:03074200005ab9a1
:03074300005ac594
:03074400005ad286
:03074500005ade79
:03074600005aea6c
:03074700005af75e
:03074800005b0350
:03074900005b0f43
:03074a00005b1c35
:03074b00005b2828
:03074c00005b351a
:03074d00005b410d
:03074e00005b4d00
:03074f00005b5af2
:03075000005b66e5
:03075100005b72d8
:03075200005b7fca
:03075300005b8bbd
:03075400005b97b0
:03075500005ba4a2
:03075600005bb095
:03075700005bbd87
:03075800005bc97a
:03075900005bd56d
:03075a00005be25f
:03075b00005bee52
:03075c00005bfa45
:03075d00005c0736
:03075e00005c1329
:03075f00005c1f1c
:03076000005c2c0e
:03076100005c3801
:03076200005c45f3
:03076300005c51e6
:03076400005c5dd9
:03076500005c6acb
:03076600005c76be
:03076700005c82b1
:03076800005c8fa3
:03076900005c9b96
:03076a00005ca789
:03076b00005cb47b
:03076c00005cc06e
:03076d00005ccc61
:03076e00005cd953
:03076f00005ce546
:03077000005cf238
:03077100005cfe2b
:03077200005d0a1d
:03077300005d170f
:03077400005d2302
:03077500005d2ff5
:03077600005d3ce7
:03077700005d48da
:03077800005d54cd
:03077900005d61bf
:03077a00005d6db2
:03077b00005d79a5
:03077c00005d8697
:03077d00005d928a
:03077e00005d9f7c
:03077f00005dab6f
:03078000005db762
:03078100005dc454
:03078200005dd047
:03078300005ddc3a
:03078400005de92c
:03078500005df51f
:03078600005e0111
:03078700005e0e03
:03078800005e1af6
:03078900005e26e9
:03078a00005e33db
:03078b00005e3fce
:03078c00005e4bc1
:03078d00005e58b3
:03078e00005e64a6
:03078f00005e7198
:03079000005e7d8b
:03079100005e897e
:03079200005e9670
:03079300005ea263
:03079400005eae56
:03079500005ebb48
:03079600005ec73b
:03079700005ed32e
:03079800005ee020
:03079900005eec13
:03079a00005ef806
:03079b00005f05f7
:03079c00005f11ea
:03079d00005f1ddd
:03079e00005f2acf
:03079f00005f36c2
:0307a000005f42b5
:0307a100005f4fa7
:0307a200005f5b9a
:0307a300005f678d
:0307a400005f747f
:0307a500005f8072
:0307a600005f8d64
:0307a700005f9957
:0307a800005fa54a
:0307a900005fb23c
:0307aa00005fbe2f
:0307ab00005fca22
:0307ac00005fd714
:0307ad00005fe307
:0307ae00005feffa
:0307af00005ffcec
:0307b000006008de
:0307b100006014d1
:0307b200006021c3
:0307b30000602db6
:0307b400006039a9
:0307b5000060469b
:0307b6000060528e
:0307b70000605e81
:0307b80000606b73
:0307b90000607766
:0307ba0000608359
:0307bb000060904b
:0307bc0000609c3e
:0307bd000060a831
:0307be000060b523
:0307bf000060c116
:0307c0000060cd09
:0307c1000060dafb
:0307c2000060e6ee
:0307c3000060f2e1
:0307c4000060ffd3
:0307c50000610bc5
:0307c600006117b8
:0307c700006124aa
:0307c8000061309d
:0307c90000613c90
:0307ca0000614982
:0307cb0000615575
:0307cc0000616168
:0307cd0000616e5a
:0307ce0000617a4d
:0307cf0000618640
:0307d00000619332
:0307d10000619f25
:0307d2000061ab18
:0307d3000061b80a
:0307d4000061c4fd
:0307d5000061d1ef
:0307d6000061dde2
:0307d7000061e9d5
:0307d8000061f6c7
:0307d900006202b9
:0307da0000620eac
:0307db0000621b9e
:0307dc0000622791
:0307dd0000623384
:0307de0000624076
:0307df0000624c69
:0307e0000062585c
:0307e1000062654e
:0307e20000627141
:0307e30000627d34
:0307e40000628927
:0307e50000629619
:0307e6000062a20c
:0307e7000062aeff
:0307e8000062bbf1
:0307e9000062c7e4
:0307ea000062d3d7
:0307eb000062e0c9
:0307ec000062ecbc
:0307ed000062f8af
:0307ee00006305a0
:0307ef0000631193
:0307f00000631d86
:0307f10000632a78
:0307f2000063366b
:0307f3000063425e
:0307f40000634f50
:0307f50000635b43
:0307f60000636736
:0307f70000637428
:0307f8000063801b
:0307f90000638c0e
:0307fa0000639900
:0307fb000063a5f3
:0307fc000063b1e6
:0307fd000063bed8
:0307fe000063cacb
:0307ff000063d6be
:030800000063e3af
:030801000063efa2
:030802000063fb95
:0308030000640886
:0308040000641479
:030805000064206c
:0308060000642d5e
:0308070000643951
:0308080000644544
:0308090000645236
:03080a0000645e29
:03080b0000646a1c
:03080c000064770e
:03080d0000648301
:03080e0000648ff4
:03080f0000649ce6
:030810000064a8d9
:030811000064b4cc
:030812000064c0bf
:030813000064cdb1
:030814000064d9a4
:030815000064e597
:030816000064f289
:030817000064fe7c
:0308180000650a6e
:0308190000651760
:03081a0000652353
:03081b0000652f46
:03081c0000653c38
:03081d000065482b
:03081e000065541e
:03081f0000656110
:0308200000656d03
:03082100006579f6
:03082200006586e8
:03082300006592db
:0308240000659ece
:030825000065abc0
:030826000065b7b3
:030827000065c3a6
:030828000065cf99
:030829000065dc8b
:03082a000065e87e
:03082b000065f471
:03082c0000660162
:03082d0000660d55
:03082e0000661948
:03082f000066263a
:030830000066322d
:0308310000663e20
:0308320000664b12
:0308330000665705
:03083400006663f8
:03083500006670ea
:0308360000667cdd
:03083700006688d0
:03083800006695c2
:030839000066a1b5
:03083a000066ada8
:03083b000066b99b
:03083c000066c68d
:03083d000066d280
:03083e000066de73
:03083f000066eb65
:030840000066f758
:030841000067034a
:030842000067103c
:0308430000671c2f
:0308440000672822
:0308450000673514
:0308460000674107
:0308470000674dfa
:03084800006759ed
:03084900006766df
:03084a00006772d2
:03084b0000677ec5
:03084c0000678bb7
:03084d00006797aa
:03084e000067a39d
:03084f000067b08f
:030850000067bc82
:030851000067c875
:030852000067d567
:030853000067e15a
:030854000067ed4d
:030855000067f940
:0308560000680631
:0308570000681224
:0308580000681e17
:0308590000682b09
:03085a00006837fc
:03085b00006843ef
:03085c00006850e1
:03085d0000685cd4
:03085e00006868c7
:03085f00006874ba
:03086000006881ac
:0308610000688d9f
:0308620000689992
:030863000068a684
:030864000068b277
:030865000068be6a
:030866000068cb5c
:030867000068d74f
:030868000068e342
:030869000068ef35
:03086a000068fc27
:03086b0000690819
:03086c000069140c
:03086d00006921fe
:03086e0000692df1
:03086f00006939e4
:03087000006946d6
:03087100006952c9
:0308720000695ebc
:0308730000696aaf
:03087400006977a1
:0308750000698394
:0308760000698f87
:0308770000699c79
:030878000069a86c
:030879000069b45f
:03087a000069c151
:03087b000069cd44
:03087c000069d937
:03087d000069e52a
:03087e000069f21c
:03087f000069fe0f
:03088000006a0a01
:03088100006a17f3
:03088200006a23e6
:03088300006a2fd9
:03088400006a3bcc
:03088500006a48be
:03088600006a54b1
:03088700006a60a4
:03088800006a6d96
:03088900006a7989
:03088a00006a857c
:03088b00006a926e
:03088c00006a9e61
:03088d00006aaa54
:03088e00006ab647
:03088f00006ac339
:03089000006acf2c
:03089100006adb1f
:03089200006ae811
:03089300006af404
:03089400006b00f6
:03089500006b0ce9
:03089600006b19db
:03089700006b25ce
:03089800006b31c1
:03089900006b3eb3
:03089a00006b4aa6
:03089b00006b5699
:03089c00006b628c
:03089d00006b6f7e
:03089e00006b7b71
:03089f00006b8764
:0308a000006b9456
:0308a100006ba049
:0308a200006bac3c
:0308a300006bb82f
:0308a400006bc521
:0308a500006bd114
:0308a600006bdd07
:0308a700006beaf9
:0308a800006bf6ec
:0308a900006c02de
:0308aa00006c0ed1
:0308ab00006c1bc3
:0308ac00006c27b6
:0308ad00006c33a9
:0308ae00006c409b
:0308af00006c4c8e
:0308b000006c5881
:0308b100006c6474
:0308b200006c7166
:0308b300006c7d59
:0308b400006c894c
:0308b500006c963e
:0308b600006ca231
:0308b700006cae24
:0308b800006cba17
:0308b900006cc709
:0308ba00006cd3fc
:0308bb00006cdfef
:0308bc00006cebe2
:0308bd00006cf8d4
:0308be00006d04c6
:0308bf00006d10b9
:0308c000006d1dab
:0308c100006d299e
:0308c200006d3591
:0308c300006d4184
:0308c400006d4e76
:0308c500006d5a69
:0308c600006d665c
:0308c700006d734e
:0308c800006d7f41
:0308c900006d8b34
:0308ca00006d9727
:0308cb00006da419
:0308cc00006db00c
:0308cd00006dbcff
:0308ce00006dc8f2
:0308cf00006dd5e4
:0308d000006de1d7
:0308d100006dedca
:0308d200006dfabc
:0308d300006e06ae
:0308d400006e12a1
:0308d500006e1e94
:0308d600006e2b86
:0308d700006e3779
:0308d800006e436c
:0308d900006e4f5f
:0308da00006e5c51
:0308db00006e6844
:0308dc00006e7437
:0308dd00006e8129
:0308de00006e8d1c
:0308df00006e990f
:0308e000006ea502
:0308e100006eb2f4
:0308e200006ebee7
:0308e300006ecada
:0308e400006ed6cd
:0308e500006ee3bf
:0308e600006eefb2
:0308e700006efba5
:0308e800006f0797
:0308e900006f1489
:0308ea00006f207c
:0308eb00006f2c6f
:0308ec00006f3961
:0308ed00006f4554
:0308ee00006f5147
:0308ef00006f5d3a
:0308f000006f6a2c
:0308f100006f761f
:0308f200006f8212
:0308f300006f8e05
:0308f400006f9bf7
:0308f500006fa7ea
:0308f600006fb3dd
:0308f700006fbfd0
:0308f800006fccc2
:0308f900006fd8b5
:0308fa00006fe4a8
:0308fb00006ff19a
:0308fc00006ffd8d
:0308fd000070097f
:0308fe0000701572
:0308ff0000702264
:0309000000702e56
:0309010000703a49
:030902000070463c
:030903000070532e
:0309040000705f21
:0309050000706b14
:0309060000707707
:03090700007084f9
:03090800007090ec
:0309090000709cdf
:03090a000070a8d2
:03090b000070b5c4
:03090c000070c1b7
:03090d000070cdaa
:03090e000070d99d
:03090f000070e68f
:030910000070f282
:030911000070fe75
:0309120000710a67
:0309130000711759
:030914000071234c
:0309150000712f3f
:0309160000713b32
:0309170000714824
:0309180000715417
:030919000071600a
:03091a0000716dfc
:03091b00007179ef
:03091c00007185e2
:03091d00007191d5
:03091e0000719ec7
:03091f000071aaba
:030920000071b6ad
:030921000071c2a0
:030922000071cf92
:030923000071db85
:030924000071e778
:030925000071f36b
:030926000072005c
:0309270000720c4f
:0309280000721842
:0309290000722435
:03092a0000723127
:03092b0000723d1a
:03092c000072490d
:03092d0000725500
:03092e00007262f2
:03092f0000726ee5
:0309300000727ad8
:03093100007286cb
:03093200007293bd
:0309330000729fb0
:030934000072aba3
:030935000072b796
:030936000072c488
:030937000072d07b
:030938000072dc6e
:030939000072e861
:03093a000072f553
:03093b0000730145
:03093c0000730d38
:03093d000073192b
:03093e000073251e
:03093f0000733210
:0309400000733e03
:0309410000734af6
:03094200007356e9
:03094300007363db
:0309440000736fce
:0309450000737bc1
:03094600007387b4
:03094700007394a6
:030948000073a099
:030949000073ac8c
:03094a000073b87f
:03094b000073c571
:03094c000073d164
:03094d000073dd57
:03094e000073e94a
:03094f000073f63c
:030950000074022e
:0309510000740e21
:0309520000741a14
:0309530000742706
:03095400007433f9
:0309550000743fec
:0309560000744bdf
:03095700007458d1
:03095800007464c4
:03095900007470b7
:03095a0000747caa
:03095b000074889d
:03095c000074958f
:03095d000074a182
:03095e000074ad75
:03095f000074b968
:030960000074c65a
:030961000074d24d
:030962000074de40
:030963000074ea33
:030964000074f725
:0309650000750317
:0309660000750f0a
:0309670000751bfd
:03096800007528ef
:03096900007534e2
:03096a00007540d5
:03096b0000754cc8
:03096c00007558bb
:03096d00007565ad
:03096e00007571a0
:03096f0000757d93
:0309700000758986
:0309710000759678
:030972000075a26b
:030973000075ae5e
:030974000075ba51
:030975000075c743
:030976000075d336
:030977000075df29
:030978000075eb1c
:030979000075f70f
:03097a0000760400
:03097b00007610f3
:03097c0000761ce6
:03097d00007628d9
:03097e00007635cb
:03097f00007641be
:0309800000764db1
:03098100007659a4
:0309820000766597
:0309830000767289
:0309840000767e7c
:0309850000768a6f
:0309860000769662
:030987000076a354
:030988000076af47
:030989000076bb3a
:03098a000076c72d
:03098b000076d320
:03098c000076e012
:03098d000076ec05
:03098e000076f8f8
:03098f00007704ea
:03099000007711dc
:0309910000771dcf
:03099200007729c2
:03099300007735b5
:03099400007741a8
:0309950000774e9a
:0309960000775a8d
:0309970000776680
:0309980000777273
:0309990000777f65
:03099a0000778b58
:03099b000077974b
:03099c000077a33e
:03099d000077af31
:03099e000077bc23
:03099f000077c816
:0309a0000077d409
:0309a1000077e0fc
:0309a2000077edee
:0309a3000077f9e1
:0309a400007805d3
:0309a500007811c6
:0309a60000781db9
:0309a70000782aab
:0309a8000078369e
:0309a90000784291
:0309aa0000784e84
:0309ab0000785a77
:0309ac0000786769
:0309ad000078735c
:0309ae0000787f4f
:0309af0000788b42
:0309b00000789834
:0309b1000078a427
:0309b2000078b01a
:0309b3000078bc0d
:0309b4000078c800
:0309b5000078d5f2
:0309b6000078e1e5
:0309b7000078edd8
:0309b8000078f9cb
:0309b900007905bd
:0309ba00007912af
:0309bb0000791ea2
:0309bc0000792a95
:0309bd0000793688
:0309be000079437a
:0309bf0000794f6d
:0309c00000795b60
:0309c10000796753
:0309c20000797346
:0309c30000798038
:0309c40000798c2b
:0309c5000079981e
:0309c6000079a411
:0309c7000079b004
:0309c8000079bdf6
:0309c9000079c9e9
:0309ca000079d5dc
:0309cb000079e1cf
:0309cc000079edc2
:0309cd000079fab4
:0309ce00007a06a6
:0309cf00007a1299
:0309d000007a1e8c
:0309d100007a2a7f
:0309d200007a3771
:0309d300007a4364
:0309d400007a4f57
:0309d500007a5b4a
:0309d600007a673d
:0309d700007a742f
:0309d800007a8022
:0309d900007a8c15
:0309da00007a9808
:0309db00007aa4fb
:0309dc00007ab1ed
:0309dd00007abde0
:0309de00007ac9d3
:0309df00007ad5c6
:0309e000007ae1b9
:0309e100007aeeab
:0309e200007afa9e
:0309e300007b0690
:0309e400007b1283
:0309e500007b1e76
:0309e600007b2b68
:0309e700007b375b
:0309e800007b434e
:0309e900007b4f41
:0309ea00007b5b34
:0309eb00007b6826
:0309ec00007b7419
:0309ed00007b800c
:0309ee00007b8cff
:0309ef00007b98f2
:0309f000007ba5e4
:0309f100007bb1d7
:0309f200007bbdca
:0309f300007bc9bd
:0309f400007bd5b0
:0309f500007be2a2
:0309f600007bee95
:0309f700007bfa88
:0309f800007c067a
:0309f900007c126d
:0309fa00007c1f5f
:0309fb00007c2b52
:0309fc00007c3745
:0309fd00007c4338
:0309fe00007c4f2b
:0309ff00007c5b1e
:030a0000007c680f
:030a0100007c7402
:030a0200007c80f5
:030a0300007c8ce8
:030a0400007c98db
:030a0500007ca5cd
:030a0600007cb1c0
:030a0700007cbdb3
:030a0800007cc9a6
:030a0900007cd599
:030a0a00007ce28b
:030a0b00007cee7e
:030a0c00007cfa71
:030a0d00007d0663
:030a0e00007d1256
:030a0f00007d1e49
:030a1000007d2b3b
:030a1100007d372e
:030a1200007d4321
:030a1300007d4f14
:030a1400007d5b07
:030a1500007d68f9
:030a1600007d74ec
:030a1700007d80df
:030a1800007d8cd2
:030a1900007d98c5
:030a1a00007da4b8
:030a1b00007db1aa
:030a1c00007dbd9d
:030a1d00007dc990
:030a1e00007dd583
:030a1f00007de176
:030a2000007dee68
:030a2100007dfa5b
:030a2200007e064d
:030a2300007e1240
:030a2400007e1e33
:030a2500007e2a26
:030a2600007e3718
:030a2700007e430b
:030a2800007e4ffe
:030a2900007e5bf1
:030a2a00007e67e4
:030a2b00007e74d6
:030a2c00007e80c9
:030a2d00007e8cbc
:030a2e00007e98af
:030a2f00007ea4a2
:030a3000007eb095
:030a3100007ebd87
:030a3200007ec97a
:030a3300007ed56d
:030a3400007ee160
:030a3500007eed53
:030a3600007ef946
:030a3700007f0637
:030a3800007f122a
:030a3900007f1e1d
:030a3a00007f2a10
:030a3b00007f3603
:030a3c00007f43f5
:030a3d00007f4fe8
:030a3e00007f5bdb
:030a3f00007f67ce
:030a4000007f73c1
:030a4100007f7fb4
:030a4200007f8ca6
:030a4300007f9899
:030a4400007fa48c
:030a4500007fb07f
:030a4600007fbc72
:030a4700007fc865
:030a4800007fd557
:030a4900007fe14a
:030a4a00007fed3d
:030a4b00007ff930
:030a4c0000800522
:030a4d0000801115
:030a4e0000801e07
:030a4f0000802afa
:030a5000008036ed
:030a5100008042e0
:030a520000804ed3
:030a530000805ac6
:030a5400008067b8
:030a5500008073ab
:030a560000807f9e
:030a570000808b91
:030a580000809784
:030a59000080a377
:030a5a000080b069
:030a5b000080bc5c
:030a5c000080c84f
:030a5d000080d442
:030a5e000080e035
:030a5f000080ec28
:030a60000080f81b
:030a61000081050c
:030a6200008111ff
:030a630000811df2
:030a6400008129e5
:030a6500008135d8
:030a6600008141cb
:030a670000814ebd
:030a680000815ab0
:030a6900008166a3
:030a6a0000817296
:030a6b0000817e89
:030a6c0000818a7c
:030a6d000081976e
:030a6e000081a361
:030a6f000081af54
:030a70000081bb47
:030a71000081c73a
:030a72000081d32d
:030a73000081e01f
:030a74000081ec12
:030a75000081f805
:030a7600008204f7
:030a7700008210ea
:030a780000821cdd
:030a7900008228d0
:030a7a00008235c2
:030a7b00008241b5
:030a7c0000824da8
:030a7d000082599b
:030a7e000082658e
:030a7f0000827181
:030a800000827d74
:030a810000828a66
:030a820000829659
:030a83000082a24c
:030a84000082ae3f
:030a85000082ba32
:030a86000082c625
:030a87000082d317
:030a88000082df0a
:030a89000082ebfd
:030a8a000082f7f0
:030a8b00008303e2
:030a8c0000830fd5
:030a8d0000831bc8
:030a8e00008328ba
:030a8f00008334ad
:030a9000008340a0
:030a910000834c93
:030a920000835886
:030a930000836479
:030a94000083706c
:030a950000837d5e
:030a960000838951
:030a970000839544
:030a98000083a137
:030a99000083ad2a
:030a9a000083b91d
:030a9b000083c510
:030a9c000083d202
:030a9d000083def5
:030a9e000083eae8
:030a9f000083f6db
:030aa000008402cd
:030aa10000840ec0
:030aa20000841ab3
:030aa300008427a5
:030aa40000843398
:030aa50000843f8b
:030aa60000844b7e
:030aa70000845771
:030aa80000846364
:030aa90000846f57
:030aaa0000847c49
:030aab000084883c
:030aac000084942f
:030aad000084a022
:030aae000084ac15
:030aaf000084b808
:030ab0000084c4fb
:030ab1000084d1ed
:030ab2000084dde0
:030ab3000084e9d3
:030ab4000084f5c6
:030ab500008501b8
:030ab60000850dab
:030ab7000085199e
:030ab80000852591
:030ab90000853283
:030aba0000853e76
:030abb0000854a69
:030abc000085565c
:030abd000085624f
:030abe0000856e42
:030abf0000857a35
:030ac00000858727
:030ac1000085931a
:030ac20000859f0d
:030ac3000085ab00
:030ac4000085b7f3
:030ac5000085c3e6
:030ac6000085cfd9
:030ac7000085dbcc
:030ac8000085e8be
:030ac9000085f4b1
:030aca00008600a3
:030acb0000860c96
:030acc0000861889
:030acd000086247c
:030ace000086306f
:030acf0000863c62
:030ad00000864954
:030ad10000865547
:030ad2000086613a
:030ad30000866d2d
:030ad40000867920
:030ad50000868513
:030ad60000869106
:030ad70000869df9
:030ad8000086aaeb
:030ad9000086b6de
:030ada000086c2d1
:030adb000086cec4
:030adc000086dab7
:030add000086e6aa
:030ade000086f29d
:030adf000086fe90
:030ae00000870b81
:030ae10000871774
:030ae20000872367
:030ae30000872f5a
:030ae40000873b4d
:030ae50000874740
:030ae60000875333
:030ae70000875f26
:030ae80000876c18
:030ae9000087780b
:030aea00008784fe
:030aeb00008790f1
:030aec0000879ce4
:030aed000087a8d7
:030aee000087b4ca
:030aef000087c0bd
:030af0000087ccb0
:030af1000087d9a2
:030af2000087e595
:030af3000087f188
:030af4000087fd7b
:030af5000088096d
:030af60000881560
:030af70000882153
:030af80000882d46
:030af90000883a38
:030afa000088462b
:030afb000088521e
:030afc0000885e11
:030afd0000886a04
:030afe00008876f7
:030aff00008882ea
:030b000000888edc
:030b010000889acf
:030b02000088a7c1
:030b03000088b3b4
:030b04000088bfa7
:030b05000088cb9a
:030b06000088d78d
:030b07000088e380
:030b08000088ef73
:030b09000088fb66
:030b0a0000890758
:030b0b000089144a
:030b0c000089203d
:030b0d0000892c30
:030b0e0000893823
:030b0f0000894416
:030b100000895009
:030b110000895cfc
:030b1200008968ef
:030b1300008974e2
:030b1400008980d5
:030b150000898dc7
:030b1600008999ba
:030b17000089a5ad
:030b18000089b1a0
:030b19000089bd93
:030b1a000089c986
:030b1b000089d579
:030b1c000089e16c
:030b1d000089ed5f
:030b1e000089f952
:030b1f00008a0643
:030b2000008a1236
:030b2100008a1e29
:030b2200008a2a1c
:030b2300008a360f
:030b2400008a4202
:030b2500008a4ef5
:030b2600008a5ae8
:030b2700008a66db
:030b2800008a72ce
:030b2900008a7fc0
:030b2a00008a8bb3
:030b2b00008a97a6
:030b2c00008aa399
:030b2d00008aaf8c
:030b2e00008abb7f
:030b2f00008ac772
:030b3000008ad365
:030b3100008adf58
:030b3200008aeb4b
:030b3300008af83d
:030b3400008b042f
:030b3500008b1022
:030b3600008b1c15
:030b3700008b2808
:030b3800008b34fb
:030b3900008b40ee
:030b3a00008b4ce1
:030b3b00008b58d4
:030b3c00008b64c7
:030b3d00008b70ba
:030b3e00008b7dac
:030b3f00008b899f
:030b4000008b9592
:030b4100008ba185
:030b4200008bad78
:030b4300008bb96b
:030b4400008bc55e
:030b4500008bd151
:030b4600008bdd44
:030b4700008be937
:030b4800008bf52a
:030b4900008c021b
:030b4a00008c0e0e
:030b4b00008c1a01
:030b4c00008c26f4
:030b4d00008c32e7
:030b4e00008c3eda
:030b4f00008c4acd
:030b5000008c56c0
:030b5100008c62b3
:030b5200008c6ea6
:030b5300008c7a99
:030b5400008c868c
:030b5500008c937e
:030b5600008c9f71
:030b5700008cab64
:030b5800008cb757
:030b5900008cc34a
:030b5a00008ccf3d
:030b5b00008cdb30
:030b5c00008ce723
:030b5d00008cf316
:030b5e00008cff09
:030b5f00008d0bfb
:030b6000008d17ee
:030b6100008d24e0
:030b6200008d30d3
:030b6300008d3cc6
:030b6400008d48b9
:030b6500008d54ac
:030b6600008d609f
:030b6700008d6c92
:030b6800008d7885
:030b6900008d8478
:030b6a00008d906b
:030b6b00008d9c5e
:030b6c00008da851
:030b6d00008db444
:030b6e00008dc136
:030b6f00008dcd29
:030b7000008dd91c
:030b7100008de50f
:030b7200008df102
:030b7300008dfdf5
:030b7400008e09e7
:030b7500008e15da
:030b7600008e21cd
:030b7700008e2dc0
:030b7800008e39b3
:030b7900008e45a6
:030b7a00008e5199
:030b7b00008e5e8b
:030b7c00008e6a7e
:030b7d00008e7671
:030b7e00008e8264
:030b7f00008e8e57
:030b8000008e9a4a
:030b8100008ea63d
:030b8200008eb230
:030b8300008ebe23
:030b8400008eca16
:030b8500008ed609
:030b8600008ee2fc
:030b8700008eeeef
:030b8800008efae2
:030b8900008f06d4
:030b8a00008f13c6
:030b8b00008f1fb9
:030b8c00008f2bac
:030b8d00008f379f
:030b8e00008f4392
:030b8f00008f4f85
:030b9000008f5b78
:030b9100008f676b
:030b9200008f735e
:030b9300008f7f51
:030b9400008f8b44
:030b9500008f9737
:030b9600008fa32a
:030b9700008faf1d
:030b9800008fbb10
:030b9900008fc703
:030b9a00008fd4f5
:030b9b00008fe0e8
:030b9c00008fecdb
:030b9d00008ff8ce
:030b9e00009004c0
:030b9f00009010b3
:030ba00000901ca6
:030ba10000902899
:030ba2000090348c
:030ba3000090407f
:030ba40000904c72
:030ba50000905865
:030ba60000906458
:030ba7000090704b
:030ba80000907c3e
:030ba90000908831
:030baa0000909424
:030bab000090a116
:030bac000090ad09
:030bad000090b9fc
:030bae000090c5ef
:030baf000090d1e2
:030bb0000090ddd5
:030bb1000090e9c8
:030bb2000090f5bb
:030bb300009101ad
:030bb40000910da0
:030bb50000911993
:030bb60000912586
:030bb70000913179
:030bb80000913d6c
:030bb9000091495f
:030bba0000915552
:030bbb0000916145
:030bbc0000916d38
:030bbd000091792b
:030bbe000091851e
:030bbf0000919210
:030bc00000919e03
:030bc1000091aaf6
:030bc2000091b6e9
:030bc3000091c2dc
:030bc4000091cecf
:030bc5000091dac2
:030bc6000091e6b5
:030bc7000091f2a8
:030bc8000091fe9b
:030bc90000920a8d
:030bca0000921680
:030bcb0000922273
:030bcc0000922e66
:030bcd0000923a59
:030bce000092464c
:030bcf000092523f
:030bd00000925e32
:030bd10000926a25
:030bd20000927618
:030bd3000092820b
:030bd40000928efe
:030bd50000929af1
:030bd6000092a7e3
:030bd7000092b3d6
:030bd8000092bfc9
:030bd9000092cbbc
:030bda000092d7af
:030bdb000092e3a2
:030bdc000092ef95
:030bdd000092fb88
:030bde000093077a
:030bdf000093136d
:030be00000931f60
:030be10000932b53
:030be20000933746
:030be30000934339
:030be40000934f2c
:030be50000935b1f
:030be60000936712
:030be70000937305
:030be80000937ff8
:030be90000938beb
:030bea00009397de
:030beb000093a3d1
:030bec000093afc4
:030bed000093bbb7
:030bee000093c7aa
:030bef000093d39d
:030bf0000093df90
:030bf1000093eb83
:030bf2000093f875
:030bf30000940467
:030bf4000094105a
:030bf50000941c4d
:030bf60000942840
:030bf70000943433
:030bf80000944026
:030bf90000944c19
:030bfa000094580c
:030bfb00009464ff
:030bfc00009470f2
:030bfd0000947ce5
:030bfe00009488d8
:030bff00009494cb
:030c00000094a0bd
:030c01000094acb0
:030c02000094b8a3
:030c03000094c496
:030c04000094d089
:030c05000094dc7c
:030c06000094e86f
:030c07000094f462
:030c080000950054
:030c090000950c47
:030c0a000095183a
:030c0b000095242d
:030c0c0000953020
:030c0d0000953c13
:030c0e0000954806
:030c0f00009554f9
:030c1000009560ec
:030c110000956cdf
:030c1200009578d2
:030c1300009584c5
:030c1400009590b8
:030c150000959cab
:030c16000095a89e
:030c17000095b491
:030c18000095c084
:030c19000095cc77
:030c1a000095d86a
:030c1b000095e45d
:030c1c000095f050
:030c1d000095fc43
:030c1e0000960934
:030c1f0000961527
:030c20000096211a
:030c210000962d0d
:030c220000963900
:030c2300009645f3
:030c2400009651e6
:030c250000965dd9
:030c2600009669cc
:030c2700009675bf
:030c2800009681b2
:030c290000968da5
:030c2a0000969998
:030c2b000096a58b
:030c2c000096b17e
:030c2d000096bd71
:030c2e000096c964
:030c2f000096d557
:030c30000096e14a
:030c31000096ed3d
:030c32000096f930
:030c330000970522
:030c340000971115
:030c350000971d08
:030c3600009729fb
:030c3700009735ee
:030c3800009741e1
:030c390000974dd4
:030c3a00009759c7
:030c3b00009765ba
:030c3c00009771ad
:030c3d0000977da0
:030c3e0000978993
:030c3f0000979586
:030c40000097a179
:030c41000097ad6c
:030c42000097b95f
:030c43000097c552
:030c44000097d145
:030c45000097dd38
:030c46000097e92b
:030c47000097f51e
:030c480000980110
:030c490000980d03
:030c4a00009819f6
:030c4b00009825e9
:030c4c00009831dc
:030c4d0000983dcf
:030c4e00009849c2
:030c4f00009855b5
:030c5000009861a8
:030c510000986d9b
:030c52000098798e
:030c530000988581
:030c540000989174
:030c550000989d67
:030c56000098a95a
:030c57000098b54d
:030c58000098c140
:030c59000098cd33
:030c5a000098d926
:030c5b000098e519
:030c5c000098f10c
:030c5d000098fdff
:030c5e00009909f1
:030c5f00009915e4
:030c6000009921d7
:030c610000992dca
:030c6200009939bd
:030c6300009945b0
:030c6400009951a3
:030c650000995d96
:030c660000996989
:030c67000099757c
:030c68000099816f
:030c690000998d62
:030c6a0000999955
:030c6b000099a548
:030c6c000099b13b
:030c6d000099bd2e
:030c6e000099c921
:030c6f000099d514
:030c70000099e107
:030c71000099ecfb
:030c72000099f8ee
:030c7300009a04e0
:030c7400009a10d3
:030c7500009a1cc6
:030c7600009a28b9
:030c7700009a34ac
:030c7800009a409f
:030c7900009a4c92
:030c7a00009a5885
:030c7b00009a6478
:030c7c00009a706b
:030c7d00009a7c5e
:030c7e00009a8851
:030c7f00009a9444
:030c8000009aa037
:030c8100009aac2a
:030c8200009ab81d
:030c8300009ac410
:030c8400009ad003
:030c8500009adcf6
:030c8600009ae8e9
:030c8700009af4dc
:030c8800009b00ce
:030c8900009b0cc1
:030c8a00009b18b4
:030c8b00009b24a7
:030c8c00009b309a
:030c8d00009b3c8d
:030c8e00009b4880
:030c8f00009b5473
:030c9000009b6066
:030c9100009b6c59
:030c9200009b784c
:030c9300009b843f
:030c9400009b9032
:030c9500009b9c25
:030c9600009ba818
:030c9700009bb40b
:030c9800009bc0fe
:030c9900009bccf1
:030c9a00009bd8e4
:030c9b00009be4d7
:030c9c00009bf0ca
:030c9d00009bfbbe
:030c9e00009c07b0
:030c9f00009c13a3
:030ca000009c1f96
:030ca100009c2b89
:030ca200009c377c
:030ca300009c436f
:030ca400009c4f62
:030ca500009c5b55
:030ca600009c6748
:030ca700009c733b
:030ca800009c7f2e
:030ca900009c8b21
:030caa00009c9714
:030cab00009ca307
:030cac00009caffa
:030cad00009cbbed
:030cae00009cc7e0
:030caf00009cd3d3
:030cb000009cdfc6
:030cb100009cebb9
:030cb200009cf7ac
:030cb300009d039e
:030cb400009d0f91
:030cb500009d1b84
:030cb600009d2777
:030cb700009d336a
:030cb800009d3f5d
:030cb900009d4a51
:030cba00009d5644
:030cbb00009d6237
:030cbc00009d6e2a
:030cbd00009d7a1d
:030cbe00009d8610
:030cbf00009d9203
:030cc000009d9ef6
:030cc100009daae9
:030cc200009db6dc
:030cc300009dc2cf
:030cc400009dcec2
:030cc500009ddab5
:030cc600009de6a8
:030cc700009df29b
:030cc800009dfe8e
:030cc900009e0a80
:030cca00009e1673
:030ccb00009e2266
:030ccc00009e2e59
:030ccd00009e3a4c
:030cce00009e463f
:030ccf00009e5133
:030cd000009e5d26
:030cd100009e6919
:030cd200009e750c
:030cd300009e81ff
:030cd400009e8df2
:030cd500009e99e5
:030cd600009ea5d8
:030cd700009eb1cb
:030cd800009ebdbe
:030cd900009ec9b1
:030cda00009ed5a4
:030cdb00009ee197
:030cdc00009eed8a
:030cdd00009ef97d
:030cde00009f056f
:030cdf00009f1162
:030ce000009f1d55
:030ce100009f2948
:030ce200009f343c
:030ce300009f402f
:030ce400009f4c22
:030ce500009f5815
:030ce600009f6408
:030ce700009f70fb
:030ce800009f7cee
:030ce900009f88e1
:030cea00009f94d4
:030ceb00009fa0c7
:030cec00009facba
:030ced00009fb8ad
:030cee00009fc4a0
:030cef00009fd093
:030cf000009fdc86
:030cf100009fe879
:030cf200009ff36d
:030cf300009fff60
:030cf40000a00b52
:030cf50000a01745
:030cf60000a02338
:030cf70000a02f2b
:030cf80000a03b1e
:030cf90000a04711
:030cfa0000a05304
:030cfb0000a05ff7
:030cfc0000a06bea
:030cfd0000a077dd
:030cfe0000a083d0
:030cff0000a08fc3
:030d000000a09bb5
:030d010000a0a7a8
:030d020000a0b29c
:030d030000a0be8f
:030d040000a0ca82
:030d050000a0d675
:030d060000a0e268
:030d070000a0ee5b
:030d080000a0fa4e
:030d090000a10640
:030d0a0000a11233
:030d0b0000a11e26
:030d0c0000a12a19
:030d0d0000a1360c
:030d0e0000a142ff
:030d0f0000a14ef2
:030d100000a159e6
:030d110000a165d9
:030d120000a171cc
:030d130000a17dbf
:030d140000a189b2
:030d150000a195a5
:030d160000a1a198
:030d170000a1ad8b
:030d180000a1b97e
:030d190000a1c571
:030d1a0000a1d164
:030d1b0000a1dd57
:030d1c0000a1e94a
:030d1d0000a1f43e
:030d1e0000a20030
:030d1f0000a20c23
:030d200000a21816
:030d210000a22409
:030d220000a230fc
:030d230000a23cef
:030d240000a248e2
:030d250000a254d5
:030d260000a260c8
:030d270000a26cbb
:030d280000a278ae
:030d290000a283a2
:030d2a0000a28f95
:030d2b0000a29b88
:030d2c0000a2a77b
:030d2d0000a2b36e
:030d2e0000a2bf61
:030d2f0000a2cb54
:030d300000a2d747
:030d310000a2e33a
:030d320000a2ef2d
:030d330000a2fb20
:030d340000a30712
:030d350000a31206
:030d360000a31ef9
:030d370000a32aec
:030d380000a336df
:030d390000a342d2
:030d3a0000a34ec5
:030d3b0000a35ab8
:030d3c0000a366ab
:030d3d0000a3729e
:030d3e0000a37e91
:030d3f0000a38a84
:030d400000a39578
:030d410000a3a16b
:030d420000a3ad5e
:030d430000a3b951
:030d440000a3c544
:030d450000a3d137
:030d460000a3dd2a
:030d470000a3e91d
:030d480000a3f510
:030d490000a40102
:030d4a0000a40df5
:030d4b0000a418e9
:030d4c0000a424dc
:030d4d0000a430cf
:030d4e0000a43cc2
:030d4f0000a448b5
:030d500000a454a8
:030d510000a4609b
:030d520000a46c8e
:030d530000a47881
:030d540000a48474
:030d550000a48f68
:030d560000a49b5b
:030d570000a4a74e
:030d580000a4b341
:030d590000a4bf34
:030d5a0000a4cb27
:030d5b0000a4d71a
:030d5c0000a4e30d
:030d5d0000a4ef00
:030d5e0000a4fbf3
:030d5f0000a506e6
:030d600000a512d9
:030d610000a51ecc
:030d620000a52abf
:030d630000a536b2
:030d640000a542a5
:030d650000a54e98
:030d660000a55a8b
:030d670000a5667e
:030d680000a57172
:030d690000a57d65
:030d6a0000a58958
:030d6b0000a5954b
:030d6c0000a5a13e
:030d6d0000a5ad31
:030d6e0000a5b924
:030d6f0000a5c517
:030d700000a5d10a
:030d710000a5dcfe
:030d720000a5e8f1
:030d730000a5f4e4
:030d740000a600d6
:030d750000a60cc9
:030d760000a618bc
:030d770000a624af
:030d780000a630a2
:030d790000a63c95
:030d7a0000a64789
:030d7b0000a6537c
:030d7c0000a65f6f
:030d7d0000a66b62
:030d7e0000a67755
:030d7f0000a68348
:030d800000a68f3b
:030d810000a69b2e
:030d820000a6a721
:030d830000a6b215
:030d840000a6be08
:030d850000a6cafb
:030d860000a6d6ee
:030d870000a6e2e1
:030d880000a6eed4
:030d890000a6fac7
:030d8a0000a706b9
:030d8b0000a711ad
:030d8c0000a71da0
:030d8d0000a72993
:030d8e0000a73586
:030d8f0000a74179
:030d900000a74d6c
:030d910000a7595f
:030d920000a76552
:030d930000a77046
:030d940000a77c39
:030d950000a7882c
:030d960000a7941f
:030d970000a7a012
:030d980000a7ac05
:030d990000a7b8f8
:030d9a0000a7c4eb
:030d9b0000a7cfdf
:030d9c0000a7dbd2
:030d9d0000a7e7c5
:030d9e0000a7f3b8
:030d9f0000a7ffab
:030da00000a80b9d
:030da10000a81790
:030da20000a82383
:030da30000a82e77
:030da40000a83a6a
:030da50000a8465d
:030da60000a85250
:030da70000a85e43
:030da80000a86a36
:030da90000a87629
:030daa0000a8811d
:030dab0000a88d10
:030dac0000a89903
:030dad0000a8a5f6
:030dae0000a8b1e9
:030daf0000a8bddc
:030db00000a8c9cf
:030db10000a8d5c2
:030db20000a8e0b6
:030db30000a8eca9
:030db40000a8f89c
:030db50000a9048e
:030db60000a91081
:030db70000a91c74
:030db80000a92867
:030db90000a9335b
:030dba0000a93f4e
:030dbb0000a94b41
:030dbc0000a95734
:030dbd0000a96327
:030dbe0000a96f1a
:030dbf0000a97b0d
:030dc00000a98601
:030dc10000a992f4
:030dc20000a99ee7
:030dc30000a9aada
:030dc40000a9b6cd
:030dc50000a9c2c0
:030dc60000a9ceb3
:030dc70000a9d9a7
:030dc80000a9e59a
:030dc90000a9f18d
:030dca0000a9fd80
:030dcb0000aa0972
:030dcc0000aa1565
:030dcd0000aa2158
:030dce0000aa2c4c
:030dcf0000aa383f
:030dd00000aa4432
:030dd10000aa5025
:030dd20000aa5c18
:030dd30000aa680b
:030dd40000aa74fe
:030dd50000aa7ff2
:030dd60000aa8be5
:030dd70000aa97d8
:030dd80000aaa3cb
:030dd90000aaafbe
:030dda0000aabbb1
:030ddb0000aac6a5
:030ddc0000aad298
:030ddd0000aade8b
:030dde0000aaea7e
:030ddf0000aaf671
:030de00000ab0263
:030de10000ab0e56
:030de20000ab194a
